:020000040800F2
:10000000C0070020890100084B130008A50F000855
:10001000491300088F020008651A0008000000005C
:100020000000000000000000000000008116000831
:100030009102000800000000B51500089D16000898
:10004000A3010008A3010008A3010008A301000800
:10005000A3010008A3010008A3010008A3010008F0
:10006000A3010008A3010008A3010008A3010008E0
:10007000A3010008A3010008A3010008A3010008D0
:10008000A3010008A3010008A3010008A3010008C0
:10009000A3010008A3010008A3010008A3010008B0
:1000A000A3010008A3010008A3010008A3010008A0
:1000B000A3010008A3010008A3010008A301000890
:1000C000A3010008A3010008A3010008A301000880
:1000D000A3010008A3010008A3010008A301000870
:1000E000A3010008A3010008A301000800F002F822
:1000F00000F03AF80AA090E8000C82448344AAF188
:100100000107DA4501D100F02FF8AFF2090EBAE885
:100110000F0013F0010F18BFFB1A43F0010318473B
:10012000D8260000F8260000103A24BF78C878C10D
:10013000FAD8520724BF30C830C144BF04680C60ED
:10014000704700000023002400250026103A28BF35
:1001500078C1FBD8520728BF30C148BF0B60704739
:100160001FB51FBD10B510BD00F058F81146FFF7C0
:10017000F7FF01F0F9FC00F076F803B4FFF7F2FFA7
:1001800003BC00F07DF8000009488047094800479B
:10019000FEE7FEE7FEE7FEE7FEE7FEE7FEE7FEE737
:1001A000FEE7FEE704480549054A064B7047000094
:1001B000FF160008ED000008C0010020C007002065
:1001C000C0030020C00300204FF0000200B513461A
:1001D00094469646203922BFA0E80C50A0E80C5067
:1001E000B1F12001BFF4F7AF090728BFA0E80C5018
:1001F00048BF0CC05DF804EB890028BF40F8042B11
:1002000008BF704748BF20F8022B11F0804F18BF7D
:1002100000F8012B7047704770477047754600F033
:100220002BF8AE4605006946534620F00700854688
:1002300018B020B5FFF7B6FFBDE820404FF000062C
:100240004FF000074FF000084FF0000B21F00701BE
:10025000AC46ACE8C009ACE8C009ACE8C009ACE801
:10026000C0098D46704710B50446AFF300802046A4
:10027000BDE81040FFF781BF004870475C010020D7
:1002800001491820ABBEFEE7260002007047FEE7DA
:100290007047000070B5164C00220821204600F07F
:1002A00032F9144D00224FF40041284600F02BF99A
:1002B00000222021204600F026F9002210212046AD
:1002C00000F021F900226115284600F01CF90022F7
:1002D0002115284600F017F90022E114284600F005
:1002E00012F90022A1142846BDE8704000F00BB9B5
:1002F000000C01400008014070B5044600F008F908
:100300000546601C02D004480078044400F000F95F
:10031000401BA042FAD370BD300000202DE9F84FF9
:10032000DFF8B891002409F1040A0AF1040B23460E
:100330000F270BF1040EC9E00125A5402A40AA426F
:100340007DD1674ED1F804C0ACEB0608B44532D07D
:1003500014DCBCF1030F3AD009DCBCF1000F2AD049
:10036000BCF1010F1CD0BCF1020F31D11DE0BCF17A
:10037000110F17D0BCF1120F2AD119E0B8F5881F60
:1003800019D006DCB8F5803F15D0B8F5801F1FD115
:1003900011E0B8F5001F0ED0B8F5041F18D10AE01F
:1003A000CB6815E0CB681B1D12E0CB6808330FE06B
:1003B000CB680C330CE08B682BB1012B4FF008039A
:1003C00003D0456104E0042302E0056100E000235E
:1003D000FF2A01D8064601E000F104064FEA840531
:1003E00001D9A5F12005D6F8008007FA05FC28EA16
:1003F0000C0803FA05F548EA0508C6F800804D68C0
:10040000ED0062D5374DAE6946F00106AE61AD69CB
:1004100024F0030605F001050095334D06EB050CAD
:10042000DCF80850A607360F07FA06F825EA080593
:10043000DFF8B880404503D14FF0000817E044E0F2
:10044000DFF8AC80404502D14FF001080FE0DFF843
:10045000A480404502D14FF0020808E0DFF8988000
:10046000404502D14FF0030801E04FF0040808FABC
:1004700006F848EA0508CCF808804D68D9F800600D
:10048000ED034D4601D5164300E096432E604D68BE
:10049000DAF80060AD03554601D5164300E09643F7
:1004A0002E604D68DBF80060ED025D4601D5164315
:1004B00000E096432E604D68DEF80060AD027546A0
:1004C00001D5164300E096432E60641C0D682A4651
:1004D000E5407FF431AFBDE8F88F00000004014033
:1004E000000011100010024000000140000801400F
:1004F000000C0140001001400014014080680840D9
:1005000000D0012070470AB1016170470904FBE780
:100510000148806870470000300000200248816870
:10052000027811448160704730000020074810B500
:10053000016841F010010160032000F067F80F200E
:1005400000F006F800F024F8002010BD0020024062
:1005500070B50D4D04464FF47A712878B1FBF0F078
:100560000A490968B1FBF0F000F0BEFA48B9102C56
:1005700007D200222146501E00F028F800206C60AF
:1005800070BD012070BD0000300000202C00002054
:100590000C4808B5816941F001018161816901F070
:1005A00001010091C16941F08051C161C06900F051
:1005B000805000900448416821F0E06141F00071F2
:1005C000416008BD0010024000000140F0B40E4B35
:1005D0001B680C46C3F30223C3F10705042D00D9A1
:1005E0000425191D072901D2002300E0DB1E012686
:1005F00006FA05F1491E214099409E40761E16409C
:100600003143F0BC01F02FBA0CED00E0064900F0D8
:10061000070208684FF6FF03184040EA0220034A29
:1006200010430860704700000CED00E00000FA0580
:100630002DE9F0470F46050061D0434E306800F0C9
:100640000700B84209D2306820F007003843306014
:10065000306800F00700B84251D128683B4C810750
:1006600012D5400703D5606840F4E06060602878E8
:10067000000703D5606840F4605060606068A96856
:1006800020F0F000084360602878C00728D0686830
:10069000012810D02168022810D0890700292EDAFD
:1006A000616821F0030101436160FFF731FF80467B
:1006B00041F288390DE021688903EFE78901EDE710
:1006C000FFF726FFA0EB0801494502D90320BDE84A
:1006D000F0876068696800F00C00B0EB810FEFD123
:1006E000306800F00700B8420BD9306820F00700EE
:1006F00038433060306800F00700B84201D0012074
:10070000E5E72878400705D56068E96820F4E060EF
:10071000084360602878000706D56068296920F4DE
:10072000605040EAC100606000F018F86168084A53
:10073000C1F30311515CC8400649086006480068CF
:10074000FFF706FF0020C2E7002002400010024031
:10075000E52700082C0000203400002012A185B0FD
:100760000FC98DE80F0014A0144A00680490516866
:10077000134801F00C03042B10D0082B0ED1C1F349
:100780008343C9031DF803000AD5516804AAC1F3C5
:100790004041515C0A4A5043B0FBF1F005B070474C
:1007A00008494843FAE70000020304050607080960
:1007B0000A0B0C0D0E0F1010010200000010024079
:1007C00000127A0000093D002DE9F84F040070D0B6
:1007D0002078C04DC00749D06868C0F38100012867
:1007E00007D06868C0F38100022809D16868C00397
:1007F00006D52868800339D560680028E7D035E041
:100800006068B0F5803F0BD010B1B0F5A02F11D0CB
:10081000286820F480302860286820F4802002E0D6
:10082000286840F480302860606890B1FFF770FE5F
:1008300006460AE0286840F480202860F0E700BF00
:10084000FFF766FE801B642873D828688003F7D5FD
:100850000CE0FFF75DFE064605E000BFFFF758FE1F
:10086000801B6428F0D828688003F7D420789A4E3B
:1008700080074FF001094FF0000839D5686810F083
:100880000C0F07D06868C0F38100022809D168689E
:10089000C00306D42868800714D52069012808D130
:1008A00010E02069B0B1C6F80090FFF731FE0746AE
:1008B00005E00AE1FFF72CFEC01B0228C4D8286817
:1008C0008007F7D52868616920F0F80040EAC10088
:1008D00028600DE0C6F80080FFF71AFE074604E026
:1008E000FFF716FEC01B022823D828688007F7D41C
:1008F000207800072CD57948A169D9B1C0F80090BB
:10090000FFF706FE074604E0FFF702FEC01B0228C1
:100910000FD8686A8007F7D571484FF4FA5100681C
:10092000B0FBF1F0009000BF0098411E0091FAD298
:100930000EE080E0C0F80080FFF7EAFD074604E023
:10094000FFF7E6FDC01B022875D8686A8007F7D458
:100950002078400760D5E8690027C00008D4E8691E
:1009600040F08050E861E869012700F08050009075
:100970005C480168C90513D40168834641F480715D
:100980000160FFF7C5FD824606E000BFFFF7C0FD2E
:10099000A0EB0A0064284ED8DBF80000C005F5D5AE
:1009A000E06801280AD008B1052813D0286A20F091
:1009B00001002862286A20F0040002E0286A40F062
:1009C00001002862E06841F2883B98B1FFF7A0FD82
:1009D00082460BE0286A40F004002862EEE700BF80
:1009E000FFF796FDA0EB0A0159455AD8286A8007FF
:1009F000F6D50CE0FFF78CFD824605E0FFF788FD99
:100A0000A0EB0A0159454CD8286A8007F6D41FB1DB
:100A1000E86920F08050E861E06988B36968C1F353
:100A20008101022944D00228C6F8608004D0FFF773
:100A30006FFD044638E034E0FFF76AFD074604E046
:100A4000FFF766FDC01B02282BD828688001F7D469
:100A5000206AB0F5803F05D16868A16820F40030B5
:100A600008436860D4E908010843696821F47411F7
:100A700008436860C6F86090FFF74AFD044606E048
:100A800025E000BFFFF744FD001B022809D82868B5
:100A90008001F7D51BE000BFFFF73AFD001B0228DD
:100AA00002D90320BDE8F88F28688001F4D40EE055
:100AB0000128F7D06868226A00F48031914204D19D
:100AC000616A00F47010884201D00120EAE700203A
:100AD000E8E7000000100240000042428004424269
:100AE0002C0000200070004010B5401EB0F1807F47
:100AF00001D3012010BD4FF0E02460610F21601789
:100B000000F0B1FF0020A06107202061002010BD8F
:100B100070B590F83C20012A26D0012480F83C4092
:100B2000022280F83D2003685A689D6822F0700612
:100B30000A6832435A600D4B02689A4208D0B2F1FB
:100B4000804F05D00A4B9A4202D00A4B9A4204D1F8
:100B5000496825F080031943916080F83D400021E9
:100B600080F83C10084670BD022070BD002C01408A
:100B7000000400400008004010B5040003D094F8C1
:100B80003D0010B107E0012010BD002084F83C00BA
:100B9000204600F01FF8022084F83D00211D206847
:100BA00000F0AEFD012084F8460084F83E0084F891
:100BB0003F0084F8400084F8410084F8420084F843
:100BC000430084F8440084F8450084F83D00002088
:100BD00010BD000008B5174A01681748914207D1B7
:100BE000816941F400618161806900F4006014E072
:100BF000B1F1804F0AD0114A914210D1C16941F040
:100C00000201C161C06900F0020006E0C16941F063
:100C10000101C161C06900F00100009008BD084AEF
:100C20009142FBD1C16941F00401C161C06900F08A
:100C30000400F2E7002C01400010024000040040D4
:100C40000008004090F83D10012901D001207047B4
:100C5000022180F83D1000680B49884208D0B0F1AD
:100C6000804F05D00949884202D00949884204D101
:100C7000816801F00701062903D0016841F00101F4
:100C80000160002070470000002C0140000400407B
:100C90000008004070B5044690F83C00012817D0C9
:100CA000012584F83C50022084F83D0020688268C9
:100CB00022F0770222F47F4282600868502830D008
:100CC0000DDC20284DD005DC98B310283BD148E03E
:100CD000022070BD302844D0402834D139E060284B
:100CE00028D0702806D0B0F5805F2CD0B0F5005F1A
:100CF00029D10AE0CB68D1E90121206800F043FD49
:100D00002068816841F0770109E0CB68D1E90121D1
:100D1000206800F038FD2068816841F480418160DE
:100D200011E0CA684968206800F0E2FD502120689F
:100D300007E016E0CA684968206800F0EAFD602113
:100D4000206800F02AFD84F83D50002084F83C0023
:100D500070BDCA684968206800F0CAFD402120685B
:100D6000EFE7226801461046EBE7000000B585B0CA
:100D7000002100910191029103910268154802211E
:100D8000B2F1804F16D0144B9A4211D1826942F0D1
:100D9000080282618069039100F0080004904FF41A
:100DA0007070CDE900010D48694600BFFFF7B6FA43
:100DB00005B000BD826942F004028261806900F0E2
:100DC000040004900F20CDE9000103200390694640
:100DD0000348EBE70010024000080040000C01400F
:100DE0000008014070B5044690F83C000D4601280B
:100DF0000AD0012084F83C0042B1042A18D0082A05
:100E00002AD00C2A4DD139E0022070BD206800F0B4
:100E1000CDFC2068816941F0080181612068816909
:100E200021F004018161206881692A69114311E080
:100E3000206800F0E3FC2068816941F40061816171
:100E40002068816921F480618161206881692A6953
:100E500041EA0221816124E0206800F0FBFC206867
:100E6000C16941F00801C1612068C16921F0040134
:100E7000C1612068C1692A69114311E0206800F04E
:100E800015FD2068C16941F40061C1612068C16934
:100E900021F48061C1612068C1692A6941EA0221A7
:100EA000C161002084F83C0070BD10B5040003D07F
:100EB00094F83D0010B107E0012010BD002084F837
:100EC0003C00204600F01EF8022084F83D00211D61
:100ED000206800F015FC012084F8460084F83E00EC
:100EE00084F83F0084F8400084F8410084F8420010
:100EF00084F8430084F8440084F8450084F83D00F9
:100F0000002010BD7047000010B50446022249B110
:100F100004290ED0082913D094F84100012816D0D6
:100F2000012010BD94F83E000128F9D184F83E203C
:100F30000FE094F83F000128F2D184F83F2008E048
:100F400094F840000128EBD184F8402001E084F8B7
:100F500041200122206800F009FC0F4920688842E6
:100F600003D1426C42F4004242642068884208D0B7
:100F7000B0F1804F05D00949884202D00849884223
:100F800004D1816801F00701062903D0016841F00E
:100F900001010160002010BD002C01400004004050
:100FA00000080040FEE7000070B5164C0122082141
:100FB0002046FFF7A8FA144D00224FF400412846BE
:100FC000FFF7A1FA012220212046FFF79CFA002218
:100FD00010212046FFF797FA012251022846FFF719
:100FE00092FA002221152846FFF78DFA0122D1023C
:100FF0002846FFF788FA0022A1142846BDE8704071
:10100000FFF781BA000C0140000801402DE9F041D2
:1010100086B00024314800940194029403948169BD
:1010200041F020018161816901F020010491816911
:1010300041F004018161816901F004010491816939
:1010400041F0080181618069254F00F0080004909B
:101050000122B0213846FFF756FA4FF41E4600220F
:1010600031463846FFF74FFADFF878800022382102
:101070004046FFF748FAB0200125CDE900050320DE
:10108000CDE9024069463846FFF748F94FF4A070B1
:10109000CDE90004694638460294FFF73FF94FF462
:1010A0007C40CDE90004694640460294FFF736F9DA
:1010B000CDE900650226CDE9024669463846FFF7CC
:1010C0002DF93820CDE90005CDE9024669464046B4
:1010D000FFF724F906B0BDE8F081000000100240DF
:1010E00000080140000C014010B586B000241748EC
:1010F0000094019402940394049413490594C0E964
:1011000000144FF6FF71C0E902410461446184613B
:10111000FFF732FD08B172B6FEE74FF48050009041
:1011200069460A48FFF7B6FD08B172B6FEE70494B7
:1011300004A906480594FFF7EBFC002801D072B61D
:10114000FEE706B010BD0000002C01403C0000206E
:1011500010B58EB000240794089409940A940B9457
:101160001C2168460C94FFF72FF82A484FF0804165
:10117000016041F61F41C0E90114C721C0E9031411
:101180008461FFF7F9FC08B172B6FEE74FF48050B6
:10119000079007A91F48FFF77DFD08B172B6FEE76B
:1011A0001C48FFF782FE08B172B6FEE70B940BA94C
:1011B00018480C94FFF7ACFC08B172B6FEE760204B
:1011C000CDE9000402940022694612480494FFF716
:1011D00009FE08B172B6FEE7042269460D48FFF722
:1011E00001FE08B172B6FEE7082269460948FFF71A
:1011F000F9FD08B172B6FEE70C2269460548FFF713
:10120000F1FD08B172B6FEE70248FFF7AFFD0EB080
:1012100010BD00008400002010B586B000241748DF
:10122000009401940294039404941349059401607A
:101230004721C0E901144FF6FF71C0E9031484612E
:10124000FFF79AFC08B172B6FEE74FF480500090A9
:1012500069460A48FFF71EFD08B172B6FEE704941E
:1012600004A906480594FFF753FC002801D072B684
:10127000FEE706B010BD000000040040CC000020D6
:1012800010B58EB000240794089409940A940B9426
:101290001C2168460C94FEF797FF2A4828490160F4
:1012A0004721C0E9011440F2F311C0E9031484613D
:1012B000FFF762FC08B172B6FEE74FF4805007906A
:1012C00007A92048FFF7E6FC08B172B6FEE71D4803
:1012D000FFF7EBFD08B172B6FEE70B940BA91948B6
:1012E0000C94FFF715FC08B172B6FEE76020CDE95B
:1012F000000402940022694612480494FFF772FD2C
:1013000008B172B6FEE7042269460E48FFF76AFD8F
:1013100008B172B6FEE7082269460A48FFF762FD87
:1013200008B172B6FEE70C2269460648FFF75AFD7F
:1013300008B172B6FEE70348FFF718FD0EB010BD06
:101340000008004014010020FEE7FEE700B5084A4F
:1013500087B007CA8DE8070000200390049005902D
:10136000092203A9684600F005F807B000BD000097
:10137000D02700082DE9F041DFF8408015460E46E1
:101380000746002210214046FFF7BDF8082000F074
:10139000DFFB002405E0385D00F062F83055641C86
:1013A000E4B2AC42F7D3012210214046FFF7ABF87C
:1013B000BDE8F041082000F0CBBB00000008014070
:1013C0001FB507490522D1E90201CDE9000100203E
:1013D0000290039002A96846FFF7CCFF1FBD0000F2
:1013E000C027000800B508A287B007CA8DE807002B
:1013F0000020039004900590092203A96846FFF796
:10140000B9FF07B000BD0000014300005A5A5A5A04
:101410005A000000084A10B5C2E90010FFF712FC9C
:1014200000F00CF8FFF7CCFFFFF790FF00F006F894
:10143000BDE81040FFF7D6BF000000201FB50749E8
:101440000522D1E90001CDE90001002002900390BE
:1014500002A96846FFF78EFF1FBD0000C0270008E5
:101460002DE9F04100251A4E074601244FF6FF787A
:101470003C4201D0012200E0002280213046FFF7EB
:1014800042F8012220213046FFF73DF8052000F008
:101490005FFB002220213046FFF735F8052000F0E1
:1014A00057FB012220213046FFF72DF8402130461E
:1014B000FFF724F808B12543EDB208EA4404FF2CF5
:1014C000D6D9082000F044FB2846BDE8F081000092
:1014D0000008014000B5354A87B003AB07CA83E86E
:1014E000070000200090019002900922694603A89D
:1014F000FFF740FF9DF80100412801D0732853D128
:101500002B48BDF80310006841F30002521C027022
:1015100041F34002521C427041F38002521C82701F
:1015200041F3C002521CC27041F30012521C0271FE
:1015300041F34012521C427141F38012521C8271DD
:1015400041F3C012521CC27141F30022521C0272BC
:1015500041F34022521C427241F38022521C82729B
:1015600041F3C022521CC27241F30032521C02737A
:1015700041F34032521C427341F38032521C827359
:10158000012282EAD131C1739DF8011073290BD178
:101590009DF8051001749DF8061041749DF8071020
:1015A00081749DF80810C17407B000BDDC270008E5
:1015B000000000207047000070B5164C0022082182
:1015C0002046FEF7A0FF144D00224FF400412846AC
:1015D000FEF799FF002220212046FEF794FF01220A
:1015E00010212046FEF78FFF002261152846FEF7E6
:1015F0008AFF002221152846FEF785FF0022E1140C
:101600002846FEF780FF2846BDE8704001221103FE
:10161000FEF779BF000C01400008014070B5164C80
:10162000002208212046FEF76EFF144D0122D1034F
:101630002846FEF768FF012220212046FEF763FFBF
:10164000002210212046FEF75EFF00226115284689
:10165000FEF759FF012291022846FEF754FF0122AE
:10166000D1022846FEF74FFF0022A1142846BDE80C
:101670007040FEF748BF0000000C01400008014028
:1016800070470000044A1160121D1060121D1160A5
:10169000111D08607047000034080040FEF73EBF8F
:1016A00030B58FB028216846FEF78EFD14210AA8B8
:1016B000FEF78AFD01210804CDE900100024029400
:1016C00002250491CDE907504FF4E01009906846D7
:1016D000FFF77AF808B172B6FEE70F20CDE90A05E8
:1016E0004FF48060CDE90C4002210AA80E94FEF769
:1016F0009FFF002801D072B6FEE70FB030BD7047E3
:10170000F0B50268164B174C174D4FF080479842C2
:1017100005D0B84203D0A04201D0A84203D122F0A4
:1017200070064A683243984205D0B84203D0A042BE
:1017300001D0A84203D122F44074CA6822434C6904
:1017400022F08002224302608A68C2620A688262D2
:10175000984201D10969016301214161F0BD000096
:10176000002C0140000400400008004010B501F0CA
:101770001F030121046A99408C430462016A9A4064
:101780001143016210BD10B5846842EA032224F4BB
:101790007F440A432243826010BD826822F07002B7
:1017A0000A4342F0070181607047000030B5026AC9
:1017B00022F001020262026A4368846924F0730520
:1017C0000C682C4322F002058A682A430A4DA8427D
:1017D0000BD122F00805CA6823F440732A434D69EF
:1017E00022F004021D438B692B43436084614968E6
:1017F0004163026230BD0000002C014030B5026A36
:1018000022F010020262026A436884690D6824F4BF
:10181000E64444EA05248D6822F0200242EA0512DB
:101820000B4DA8420ED1CD6822F0800242EA05128B
:101830004D6923F4406343EA85038D6922F0400239
:1018400043EA85034360846149688163026230BD75
:10185000002C014030B5026A22F480720262036AF1
:101860004268C46923F4007324F073050C682C43A8
:101870008D6843EA05230C4DA8420ED1CD6823F4B0
:10188000006343EA05234D6922F4405242EA0512FF
:101890008D6923F4806342EA05124260C46149689D
:1018A000C163036230BD0000002C014030B5026A04
:1018B00022F480520262046A4268C3690D6823F40C
:1018C000E64343EA05238D6824F4005444EA0534D2
:1018D000064DA84204D14D6922F4804242EA8512A5
:1018E0004260C36149680164046230BD002C01405C
:1018F00010B5036A046A24F001040462846924F0C8
:10190000F00444EA021423F00A020A4384610262EA
:1019100010BD10B5036A23F0100303628369046AE3
:1019200023F4704343EA023224F0A00343EA011196
:101930008261016210BD000070B5164C00220821C2
:101940002046FEF7E0FD144D0122D1032846FEF7A4
:10195000DAFD002220212046FEF7D5FD01221021CC
:101960002046FEF7D0FD002261152846FEF7CBFD8C
:10197000012291022846FEF7C6FD0022E114284606
:10198000FEF7C1FD2846BDE8704001221103FEF7B5
:10199000BABD0000000C01400008014070B5164CB3
:1019A000002208212046FEF7AEFD144D0122D1038E
:1019B0002846FEF7A8FD002220212046FEF7A3FDC1
:1019C000002210212046FEF79EFD002261152846C8
:1019D000FEF799FD012291022846FEF794FD0022B0
:1019E000E1142846FEF78FFD0022A1142846BDE829
:1019F0007040FEF788BD0000000C01400008014067
:101A000070B5164C012208212046FEF77CFD144DCE
:101A100000224FF400412846FEF775FD00222021E8
:101A20002046FEF770FD012210212046FEF76BFDD7
:101A3000012251022846FEF766FD002221152846A4
:101A4000FEF761FD0022E1142846FEF75CFD284602
:101A5000BDE8704001221103FEF755BD000C0140A6
:101A600000080140FEE70907090E002804DB00F129
:101A7000E02080F80014704700F00F0000F1E02033
:101A800080F8141D7047000010B5304CA06970B18B
:101A9000011D16D0042817D0C11C12D0032813D062
:101AA000022814D0811C28D00A283CD04BE0FFF734
:101AB00043FF6188208864396438FFF7E3FD60697B
:101AC0003FE0FFF7ABFDF4E7FFF79AFFF1E7FEF722
:101AD000E1FBFEF7DFFB00BF00F050FAFFF790FFDD
:101AE0006188208864396438FFF7CCFDC820FEF790
:101AF00003FCA0690028EFD125E0FEF7CBFBFEF741
:101B0000C9FB00BF00F03AFAFFF788FD6188208822
:101B100064396438FFF7B6FDC820FEF7EDFBA06915
:101B20000028EFD10FE0FEF7B5FB6420FEF7E4FBE1
:101B3000FFF774FD4FF4C8700146FFF7A3FD4FF4A3
:101B4000FA70FEF7D9FBA069E06010BD0800002024
:101B50000449002249680B685A6209684A6A82424D
:101B6000FCD37047000000208CB0FEF7DFFCFFF7CD
:101B700097FDFFF74BFAFFF7EBFAFFF74DFBFFF787
:101B8000B3FAFFF77DFB0021EA48FFF7BDF9042116
:101B9000E848FFF7B9F90821E648FFF7B5F90C2145
:101BA000E448FFF7B1F9E34800219038FFF7ACF9BA
:101BB000E04804219038FFF7A7F9DE480821903863
:101BC000FFF7A2F9DB480C219038FFF79DF9DFF809
:101BD0006CA3DB49CDE9081A0520DFF85CB3840764
:101BE000CDF828B0CDF81CA060631920A0630A20AE
:101BF000E06319202064CF4869464838FFF70AFCA3
:101C0000D04E4FF4FA753560371D3D6007F104087A
:101C1000C8F8005008F10409C9F80050FFF75AFC51
:101C20009DF8040010B1FFF787FEF1E09DF8060073
:101C300010B1FFF7B9F9EBE09DF8070010B1FFF71D
:101C4000ADFEE5E09DF8050010B1FFF7B5FCDFE063
:101C50009DF80A0010B1FFF7D3FED9E09DF8080007
:101C600010B1FFF7DBFCD3E09DF8010018B1B649D5
:101C700001200861D4E09DF80D00B8B101225103A4
:101C8000B248FEF740FC0A9800F004FDB04AB14BA0
:101C900000F01AFB00F0E6FA01460A90AE488142D5
:101CA0001DDA1AE000F022FD6063AAE09DF80F0043
:101CB000B8B100224FF40051A448FEF724FC0A9862
:101CC00000F0E8FCA24AA34B00F0FAFB00F0CAFACD
:101CD00001460A905846814201DD0846E2E70A9033
:101CE000E0E79DF80B00D0B1012251039748FEF7C1
:101CF0000AFC099800F0CEFC4FF03332974B00F00D
:101D0000E3FA00F0AFFA014609905046814220DA2A
:101D10001DE000BF00F0EAFCA063282072E09DF8FF
:101D20000900C0B100224FF400518848FEF7EBFBD8
:101D3000099800F0AFFC4FF03332884B00F0C0FB45
:101D400000F090FA014609908548814201DD08467D
:101D5000E0E70990DEE79DF80C0018B3012251037B
:101D60007A48FEF7D0FB089800F094FC784A7D4B47
:101D700000F0A6FB00F076FA0890079800F08AFCC5
:101D8000734A794B00F09CFB00F06CFA079077489F
:101D90000899814200DC089075480799814228DC47
:101DA000079026E09DF80E0078B300224FF4005112
:101DB0006648FEF7A8FB089800F06CFC644A6A4B82
:101DC00000F082FA00F04EFA0890079800F062FCEA
:101DD0005F4A644B00F078FA00F044FA07905848E4
:101DE0000899814200DB08900799514501DBCDF845
:101DF0001CA0089800F07AFCE063079800F076FCDD
:101E000020640A20FEF778FA02E0FFE7FEF742FAC4
:101E10004D480069012803D00220FEF76DFAEFE675
:101E2000FEF738FA6420FEF767FA00224FF40051FB
:101E30004648FEF768FB4FF4C87B00BF4FF4807143
:101E40004C48FEF75BFB82464FF480614A48FEF740
:101E500055FB0446BAF1000F2CD1FEF71BFAC6F869
:101E600000B0C7F800B0C8F800B0C9F800B0FFF77C
:101E7000D5FB2846FEF740FAFFF75EFD2846FEF741
:101E80003BFAFFF7BDFD2846FEF736FAFFF754FD93
:101E90002846FEF731FAFFF7B3FD2846FEF72CFA85
:101EA000FFF74AFD2846FEF727FAFFF7B7FB28465B
:101EB000FEF722FA64BBFEF7EDF9C6F800B0C7F8EA
:101EC00000B0C8F800B0C9F800B0FFF799FD284687
:101ED000FEF712FAFFF730FD2846FEF70DFAFFF77E
:101EE0009DFB2846FEF708FAFFF726FD2846FEF779
:101EF00003FAFFF793FB2846FEF7FEF9FFF71CFDF8
:101F00002846FEF7F9F9FFF77BFD2846FEF7F4F9BE
:101F1000FEF7C0F900F032F8FFF7B6FD0A48416855
:101F2000012902D18168491C81600220FEF7E4F991
:101F300084E70000140100200000A0400000C84118
:101F4000000020413408004008000020001001403B
:101F50009A9999999999D93F000048413333D33FD1
:101F6000000090419999C93F9999B93F00002040DC
:101F70000000A04100080140000C01402DE9F041A3
:101F800000F04CF9A348012256030178A24F002526
:101F9000A0F11C04A9B1531F012959D000296CD00C
:101FA000012957D0002975D0012957D0002972D0B6
:101FB000012971D0002970D001296FD000296ED07D
:101FC00017E14378022123B1012B25D06BB334D024
:101FD0000FE1827812B1012A11D00AE1C2780421FE
:101FE00012B1012A04D004E1007928B9E0684FE079
:101FF000007908B903204BE0012827D0F9E0C27826
:1020000012B1012A04D0F4E0007900286ED0F0E08B
:102010000279002A6AD00EE08378012B30D1C37890
:1020200073B90179002961D06DE08278012A0ED15F
:10203000C278012A0BD10079DEE78378012B1FD10A
:10204000C378012B5DD10379012B77D1A161D0E059
:10205000417839B14178012922D029B1417801294B
:1020600022D064E0817819B18178012939D06DE0FE
:10207000C17879BB017909B345E04178012908D1DC
:10208000817841BBC17839BB017971BB6FF0020027
:10209000A061AEE02FE03EE046E06FE077E09DE03B
:1020A000817821B101290BD0817819B17DE0C17807
:1020B0000029DFD0C178012929D043E0A36198E04D
:1020C000C1786FF0010211B1012906D091E00079C9
:1020D00028B18EE03CE011E022E0017979BBA261F9
:1020E00087E0C178012939D04DE00CE06BE0A561B3
:1020F000626001226DE0417801297AD1817801295D
:102100000CD1C178A1BB00790128F0D071E0017930
:102110000029F8D1EBE7417801296AD1817841BBE8
:10212000C1780129EFD02EE04178012908D011F0C3
:10213000FF010BD0012915D0E1B12AE057E03AE0C8
:10214000817889BBC1780029DDD00DE0817839BB69
:10215000C178012917D101790129C8D00079002857
:10216000C5D046E08178F9B9C1780129CBD040E0EB
:102170003AE036E081780029B3D011E041780129B6
:1021800037D1817869BBC1780029BCD031E0417872
:1021900019B1C9B2012908D02BE081780029F2D009
:1021A000C9B20129EFD024E0FFE78178012920D1CD
:1021B000C17801291DD1007901281AD1606810B1B8
:1021C000012802D015E0A56113E00A206560002215
:1021D000A06131463846FEF796F90AE041780129B8
:1021E00007D18178012904D1C178012901D1007971
:1021F00060B1A068B0F57A7F0ADD65603146384687
:10220000A560BDE8F0410022FEF77DB96260DAE723
:10221000BDE8F081240000200010014070B50F4D92
:102220004FF480512846FEF769F90D4C691420706F
:102230002846FEF763F960704FF480412846FEF7A8
:102240005DF9A0704FF400412846FEF757F9E070A1
:10225000E9142846FEF752F9207170BD000C0140C8
:102260002400002021F00042A2F16052B2F5801F4C
:1022700001F0004328BFD2F17F6C0BD95FEA001C4C
:1022800043EAC20242EB507018BF704728BF20F0EB
:1022900001007047B2F5801FBCBF184670474FEA77
:1022A000410C1CF5001F02D2084600F084BA70B53C
:1022B00000F0B2F800000089FFF7F6BF4FF00040D1
:1022C000A0F580007047000010B591EA030F48BFE9
:1022D00083F0004300F1FC80841A71EB030C05D2FB
:1022E000121943EB0C03001B61EB0C01DFF824E136
:1022F0004FEA1154A4EB135C1EEA430F18BF9EEA89
:10230000445F73D023EA0E03DCF1200E21EA04516E
:1023100043F4801332D322FA0CFE10EB0E0023FAA2
:102320000CFE41EB0E01CCF1200E03FA0EFE10EB79
:102330000E0051F10001B1F5801FCCF1200E32D218
:1023400001EB045112FA0EF2BDE8104058BF70477D
:10235000401C38BF5FEA420218BF7047002814BF14
:1023600020F0010041F100014FEA410313F5001F85
:1023700038BF7047A1F1C04100F09CB8012A43EB7F
:102380000302ACF1200CDCF11F0E32BF4FF0000E47
:1023900023FA0CF310EB030041EB0451B4EB115F93
:1023A000D0D0A1EB045101F5801149085FEA30005B
:1023B00001EB04510ED350F1000038BF12FA0EFEAB
:1023C00008D1BDE81040C9E7401C38BF5FEA4202AF
:1023D000CAD1C3E7BDE810404FEA410313F5001F1F
:1023E00038BF7047A1F1C04100F064B89EEA445F75
:1023F00008D011EA5E0FBDE8104004BF01F00041B3
:1024000000207047BDE8104070B500F005F800BF2F
:1024100064FBBE3E0000E0FF0EF1020E2EF0030E44
:102420005EF8046B364205D4012A43EB030515F52B
:10243000001F12D8012841EB010C1CF5001F0CD81D
:102440000ED14FEAD17C15F5001F0CEB4C0C0CF1B2
:10245000020C08BF4CEBD37C04E04FF0080C01E009
:102460004FEAD37C0CEB4C0526FA05F606F007067E
:10247000B6F1040C06D20EEB860CBDE870404CF0B1
:10248000010C6047DFE80CF0090B02024FF000413D
:102490004FF00000A1F5002170BD1946104601283B
:1024A00051EB010418BFD4F5001484BF002001F0E3
:1024B000004170BD0808A0F500114FEA31017047D6
:1024C00010B591EA030F48BF83F000433FF504AF16
:1024D000841A71EB030C07D212198CF0004C43EBF9
:1024E0000C03001B61EB0C01DFF8A4E14FEA11546F
:1024F000A4EB135C1EEA430F18BF9EEA445F00F092
:10250000B08023EA6E03524221EA0451C3EB6E030A
:1025100038BF5B1EDCF1200E25D322FA0CFE10EB37
:102520000E0043FA0CFE41EB0E01CCF1200E03FA33
:102530000EFE10EB0E0051F10001CCF1200E29D45B
:1025400012FA0EF201EB0451BDE8104058BF70477B
:10255000401C1CBFB2F1004F704700280CBF491C43
:1025600020F00100704712EB020E43EB030218BF8C
:102570004FF0010E4EEA4202ACF1200CDCF11E0ECF
:1025800054D943FA0CFE10EB0E0051F1FF31CCF19F
:102590001E0ED5D50EF1010E12FA0EFE404141EB92
:1025A000010101EB445C5FEA5C5C10D910EBDE706A
:1025B00001EB045138BFBEF1004FBDE8104018BF19
:1025C000704700280CBF491C20F00100704730D232
:1025D0004FEAD42C11F5001124F400641BD0B1FA99
:1025E00081F20B3AA41AA41ED2F12003914030FAD2
:1025F00003F31943904001EBCC71002C01EB045123
:10260000BDE81040A8BF704701F1C0414FF0000085
:1026100001F000417047B0FA80F310FA03F100D1E5
:1026200010BDE41A173C4805C90AE4E701EB045160
:1026300010BD491001EB0451BDE810404FEA3000D5
:1026400002E04FF0000170474A0008BF0042F8D096
:10265000B2F5001F28BF704701F000414FF00000A5
:1026600070479EEA445F07D011EA5E0FBDE8104054
:1026700004BF002100207047BDE8104070B5FFF78F
:10268000CBFE00BF40DFF63E83F0004110467047AE
:102690000000E0FF43004FEAD30C4FEA3C0C4340FC
:1026A0001FBF40070CF1605113F0FE4F70471CF044
:1026B000006F03D100200CF0004170470CF0004384
:1026C00043EA507010B540EACC0000F02EF800BF8D
:1026D000000000924FEA0001FFF7ECBE4FF000410E
:1026E0004FF00000A1F5002170470000C10DD1F1AD
:1026F0009E0206DB4FEA002343F0004323FA02F078
:102700007047004207D54FEA4001B1F1FE4F02D2B7
:102710004FF00000704710B500F007F84992248090
:10272000002070476FEA200070470EF1020E2EF075
:10273000030E5EF8044B244204D44FEA4102B2F186
:102740007F4F11D84FEA4003B3F17F4F0CD80ED121
:102750004FEAD07CB2F17F4F0CEB4C0C0CF1020C29
:1027600008BF4CEBD17C04E04FF0080C01E04FEACD
:10277000D17C0CEB4C0324FA03F404F00704B4F10D
:10278000040C06D20EEB840CBDE810404CF0010C9A
:102790006047DFE80CF0070802024FF00040A0F5A8
:1027A000800010BD0846420018BFD2F1807288BF79
:1027B00000F0004010BDFF2141EAD050C005704735
:1027C0000142000000000000014300010000000081
:1027D000014400010300000000000000014200006D
:1027E00000000000000000000000000000010203E3
:1027F000040607080900000018280008000000204F
:102800003C00000028010008542800083C0000207B
:1028100084070000440100080000000000000000E0
:10282000F401F401000000000000000000000000BE
:102830000000000014000000000000000000000084
:10284000000000000024F40001000000100000005F
:042850000000000084
:04000005080000ED02
:00000001FF
